:020000040000FA
:10000000F3280000000000005F288207FD346134FF
:10001000CF34EB347334BB34BF34E134FF34FB34BE
:100020000334C73400348207EF348934D734DD34E5
:10003000B9347D347F34C934FF34FD341134D334C2
:10004000003482070234013400306600103065004D
:1000500003306200A0308B00F43092000630930031
:1000600000308F008C018D0180309D003820080009
:1000700014100F098F009E01A001A1010F1847283D
:100080008611061601309F003C308E0008009F202C
:10009000E82086150612051A522802309F00783093
:1000A0008E00080003309F00B4308E0008008515D4
:1000B00064309A00FE209A0B5A288511080095009A
:1000C000030E9600CD2003101D0C9D001D1E6A28F6
:1000D00080309D00920B74289720F4309200930B8F
:1000E000742806309300920A160E8300960E160EA0
:1000F0000B1109002103A100FF3A031D080009307C
:10010000A1002003A000FF3A031D08000530A00055
:100110001F039F00FF3A031D080009309F001E03C4
:100120009E00FF3A031D080009309E000800141CC1
:1001300008007A208E030E0F0800382008008C0A71
:100140000C080A3A031D08008C018D0A0D080A3AB2
:10015000031D08008D0108009B0008309C001B0C4B
:10016000031CB528B3288514B62885109B000515F7
:100170000000051100009C0BAF28051400000510BD
:10018000000008001E081D1A08001F089D1A08001C
:1001900020081D1B080021080800C2200520AC20F3
:1001A00006081F3986001D0486000800A2000830DA
:1001B000A300220C031CDF28DD288614E02886100B
:1001C000A2000615000006110000A30BD9280800A4
:1001D0000D081320D6200C081320D620061400008A
:1001E00006100000080024201418F4285720F920D5
:1001F000F428F43092008101141408002030980093
:10020000F83007210000980B00290800F930FF3E64
:06021000031D0729080090
:00000001FF
